:100000000C9496000C94BE000C94BE000C94BE00A0
:100010000C94BE000C94BE000C94BE000C94BE0068
:100020000C94BE000C94BE000C94BB040C942D05E3
:100030000C94BE000C94BE000C94BE000C94BE0048
:100040000C94BE000C94BE000C94BE000C94BE0038
:100050000C94BE000C94BE000C94BE000C94710471
:100060000C94BE000C94BE000C94BE000C94BE0018
:100070000C94BE000C94BE000C94BE000C94BE0008
:100080000C94BE000C94BE000C94BE000C94BE00F8
:100090000C94BE000C94BE000C94BE000C94BE00E8
:1000A0000C94BE000C94BE000C94BE00080B000221
:1000B0000202010009040000010202000005240000
:1000C0001001052401010104240206052406000193
:1000D0000705810310004009040100020A00000026
:1000E00007050202400000070583024000000403E8
:1000F000090412010002EF02014041233780000190
:100100000102030141726475696E6F204C4C43001B
:1001100041726475696E6F204D6963726F000706E6
:1001200005040100080A0B0C0D09830811241FBEE9
:10013000CFEFDAE0DEBFCDBF11E0A0E0B1E0E6E056
:10014000F6E102C005900D92A433B107D9F721E082
:10015000A4E3B1E001C01D92A33AB207E1F710E0B9
:10016000C6E9D0E004C02197FE010E94F60AC53915
:10017000D107C9F70E946B070C94010B0C94000087
:1001800020915201211103C08FEF9FEF08955FB7B7
:10019000F89422E02093E9002091F20030E012165A
:1001A000130614F421E030E0422FFC0184E64150B4
:1001B00038F0289A809351019091F1009193F7CFF4
:1001C0002115310521F08091F200882319F05FBFDD
:1001D000C90108958BE68093E800F9CF2FB7F89412
:1001E00083E08093E9009091E800892F807295FF69
:1001F00004C09091F20080E4891B2FBF0895809184
:10020000490181110DC082E08093450184E0809313
:100210004601109248011092470181E08093490104
:1002200085E491E008953FB7F89480914101909161
:100230004201A0914301B091440126B5A89B05C09D
:100240002F3F19F00196A11DB11D3FBFBA2FA92F55
:10025000982F8827820F911DA11DB11DBC01CD01D2
:1002600042E0660F771F881F991F4A95D1F70895BE
:10027000CF92DF92EF92FF920E9413016B017C01FB
:100280000E941301DC01CB018C199D09AE09BF0945
:10029000883E9340A105B10598F3FF90EF90DF9061
:1002A000CF9008954091360150913701209134014B
:1002B0003091350142175307B4F49091E8009570DE
:1002C000E1F39091E80092FD19C08093F1008091D4
:1002D00036019091370101968F739927892B19F474
:1002E0008EEF8093E800809136019091370101965E
:1002F000909337018093360181E0089580E008955E
:10030000DF92EF92FF920F931F93CF93DF93D82E3C
:10031000F92EE42E062F10E0C8010196880F0E94E6
:10032000520183E00E945201CD2DDF2D0C0F1D1FC5
:10033000C017D10789F0E7FE03C0FE01849101C018
:1003400088810E945201F82E80E00E9452018F2184
:1003500021968111EDCF01C081E0DF91CF911F91F6
:100360000F91FF90EF90DF900895DF92EF92FF9250
:100370000F931F93CF93DF93D82E8A017B01E40E56
:10038000F51EEB01CE15DF0571F0D7FE03C0FE01AF
:10039000849101C088810E94520121968111F2CF7F
:1003A0008FEF9FEF01C0C801DF91CF911F910F9197
:1003B000FF90EF90DF9008950F931F93CF93DF93FB
:1003C0001F92CDB7DEB782E0898342E450E06CEA49
:1003D00070E080E80E94B5010E94FF00DC011296E7
:1003E0000D911C9113970115110589F0D801ED911C
:1003F000FC910280F381E02DBE016F5F7F4FC80149
:10040000099597FD04C0F80100851185ECCF89811D
:100410000F90DF91CF911F910F910895615030F0AF
:100420002091F100FC0120830196F8CF289A84E600
:10043000809351010895CF92DF92EF92FF920F9334
:100440001F93CF93DF936C017A018B01C0E0D0E062
:10045000CE15DF0581F0D8016D918D01D601ED91AA
:10046000FC910190F081E02DC6010995892B11F0D6
:100470002196EECF7E01C701DF91CF911F910F91A1
:10048000FF90EF90DF90CF9008958F929F92AF9260
:10049000BF92CF92DF92EF92FF920F931F93CF9371
:1004A000DF936C017B018A0180910B01882309F4A1
:1004B00058C080915201882309F453C080913A01B9
:1004C00080FF05C08091E00082608093E000E80139
:1004D000B12C8AEFA82E93E0892E2AE3922E209742
:1004E00011F4BB20B9F10E94EE00811106C0AA945C
:1004F000AA20B9F10E943801F2CF282F30E0C217AC
:10050000D3070CF48C2F9FB7F8948092E9002091C8
:10051000E80025FF1DC0282F30E0C21BD30BF701D8
:10052000815020F041914093F100FACFE20EF31E8A
:10053000BB2019F09092E8000AC08091E80085FD88
:1005400007C09092E800BB24B394209709F0B12C27
:100550009FBFC5CF5D9A84E68093390110161106BE
:1005600044F081E090E0F6019383828380E090E0A4
:1005700001C0C801DF91CF911F910F91FF90EF90C3
:10058000DF90CF90BF90AF909F908F900895CF93C2
:10059000DF931F92CDB7DEB76983DC01ED91FC914B
:1005A0000280F381E02D41E050E0BE016F5F7F4F9C
:1005B00009950F90DF91CF91089583E08093E90032
:1005C0008091F200882319F08AE38093E80008956F
:1005D0000E94EE0090E00895CF93DF931F92CDB775
:1005E000DEB7FC018485958597FD05C02FEF3FEFB1
:1005F000358724870BC0CE0101960E94C000019769
:1006000019F4898190E002C08FEF9FEF0F90DF9186
:10061000CF9108950F931F93CF93DF931F92CDB780
:10062000DEB78C01FC018485958597FF0EC0CE0155
:1006300001960E94C000019719F4898190E002C0E0
:100640008FEF9FEFF80195878487F8018485958562
:100650000F90DF91CF911F910F910895FC01848538
:10066000958597FD0BC09FB7F89482E08093E900D1
:100670008091F2009FBF90E0019608959FB7F89493
:1006800082E08093E9008091F2009FBF90E008959E
:10069000089580E090E00895009769F0FC010190D2
:1006A0000020E9F73197AF01481B590BBC0183E5E6
:1006B00091E00C94450280E090E008952F923F92E3
:1006C0004F925F926F927F928F929F92AF92BF9262
:1006D000CF92DF92EF92FF920F931F93CF93DF930E
:1006E000CDB7DEB7A4970FB6F894DEBF0FBECDBF6F
:1006F0004B015C019B01AC010E94CF0A882319F0D9
:1007000085E291E01AC075016401E894F7F82FEFD3
:100710003FEF4FE75FE7C701B6010E94CF0A8111A3
:1007200010C02FEF3FEF4FE75FE7C701B6010E9410
:100730000509181634F489E291E00E944C038C01FB
:10074000AFC02FEF3FEF4FE75FE4C501B4010E9458
:100750005D0A18161CF48DE291E0EFCF2FEF3FEF0A
:100760004FE75FECC501B4010E94050987FDF3CF97
:1007700020E030E0A901C501B4010E94050987FF0E
:100780000BC06DE283E591E00E94C7026C01B7FAED
:10079000B094B7F8B09402C0C12CD12C2AE037ED48
:1007A00043EA5BE3C501B4010E9499084B015C0177
:1007B0000E947C092B013C010E94AB099B01AC010A
:1007C000C501B4010E9498084B015C0119A27E0189
:1007D00081E2E80EF11CEAA2FBA2C301B2012AE009
:1007E00030E040E050E00E94D40A29013A01605D07
:1007F000F70162937F01232B242B252B71F7CF0167
:100800000E944C038C016EE283E591E00E94C702D6
:10081000800F911F8C010C0D1D1D83E0F82E9AE0B6
:10082000292E312C412C512CFA94FF20C9F120E0C3
:1008300030E040E251E4C501B4010E94620A4B017C
:100840005C010E947C099B0140E050E019A26AA073
:100850007BA06CA3C32ED42EE52ECA01B901A20140
:1008600091010E94D40A605DF30162933F0121155A
:1008700031054105510589F7CF010E944C03080F4E
:10088000191F6CA17C2D8D2D9E2D0E94AB099B0103
:10089000AC01C501B4010E9498084B015C01C4CFB2
:1008A00081E391E00E944C03800F911FA4960FB644
:1008B000F894DEBF0FBECDBFDF91CF911F910F9196
:1008C000FF90EF90DF90CF90BF90AF909F908F9070
:1008D0007F906F905F904F903F902F9008950E946F
:1008E000FC0A1F920F920FB60F9211242F933F9381
:1008F0008F939F93AF93BF9380913D0190913E0161
:10090000A0913F01B091400130913C0123E0230FC1
:100910002D3720F40196A11DB11D05C026E8230F37
:100920000296A11DB11D20933C0180933D0190933F
:100930003E01A0933F01B09340018091410190910D
:100940004201A0914301B09144010196A11DB11D46
:100950008093410190934201A0934301B0934401DD
:10096000BF91AF919F918F913F912F910F900FBEAB
:100970000F901F9018951F920F920FB60F9211248F
:100980008F939F938091E1009091E100937F9093EA
:10099000E10083FF0FC01092E90091E09093EB001B
:1009A0001092EC0092E39093ED001092520198E0C7
:1009B0009093F00082FF20C093E09093E900909123
:1009C000F200992319F09AE39093E800909139018D
:1009D000992339F0909139019150909339019923DD
:1009E00089F190915101992339F0909151019150E1
:1009F00090935101992341F184FF10C08091E2004E
:100A00008E7E81608093E2008091E1008F7E8093F2
:100A1000E10080913A018E7E806111C080FF16C096
:100A20008091E2008E7E80618093E2008091E100FF
:100A30008E7E8093E10080913A018E7E816080936A
:100A40003A0104C05D98CDCF2898D6CF9F918F9161
:100A50000F900FBE0F901F9018951F920F920FB618
:100A60000F921124CF92DF92EF92FF920F931F9378
:100A70002F933F934F935F936F937F938F939F93A6
:100A8000AF93BF93EF93FF93CF93DF93CDB7DEB7D1
:100A90006C97DEBFCDBF1092E9008091E80083FF24
:100AA000FBC168E0CE0145960E940E0282EF809362
:100AB000E8008D8987FF05C09091E80090FFFCCF8A
:100AC00003C09EEF9093E800982F907609F0C6C07F
:100AD0009E894F89588D2F89F88C91110CC08038D0
:100AE00029F480913B018093F10002C01092F10043
:100AF0001092F10045C1913051F4811141C1413052
:100B0000510509F03DC180913B018D7F0BC09330B1
:100B100061F4811135C14130510509F031C1809135
:100B20003B01826080933B012BC1953049F4809159
:100B3000E80080FFFCCF822F80688093E30020C113
:100B4000963009F05EC00B8D1C8D22E01092E900FA
:100B50001092370110923601F21232C01092350114
:100B6000109234010E94DC0199E0BE016F5F7F4F5B
:100B7000DB01E92F1D92EA95E9F79983FA8291E06A
:100B80009E8390EA98879AEF998720913601309159
:100B90003701275F3F4F3C832B838D831092E90001
:100BA00010923701109236011093350100933401F1
:100BB00049E050E080E00E94B5010E94DC01E0C005
:100BC00010933501009334010E94FF00DC0112965E
:100BD0000D911C9113970115110509F4BBC0D801A3
:100BE000ED91FC910480F581E02DBE016B5E7F4F9D
:100BF000C8010995009709F0C7C0F8010085118563
:100C0000EACF973009F445C1983021F481E0809310
:100C1000F100B6C0993009F0B3C0837009F039C152
:100C2000EFE1F1E081E031E096E32081211109C09C
:100C30008EE78093EA001092EA008F898093520138
:100C40009FC08093E9003093EB0021912093EC004A
:100C50009093ED008F5F873041F7EACF8B8D9C8DAD
:100C60001092E900109237011092360190933501ED
:100C700080933401898D811153C08E899D89913A69
:100C800049F4813209F005C147E050E064E071E0C9
:100C900080E0BBC0913209F0FCC0833269F48F89D7
:100CA000988DA0E0B0E08093000190930101A093A3
:100CB0000201B093030164C0803269F48091E800BE
:100CC00082FFFCCF67E084E091E00E940E028BEF90
:100CD0008093E80055C0823209F052C08F8980931A
:100CE0000B01EEEFFFE7859194918B3F9C4D19F03E
:100CF000E0E0F8E002C0EEEFFAE0809104019091AC
:100D00000501A0910601B0910701803B9440A10527
:100D1000B10509F09EC080910B0180FF79C099C098
:100D20000E94FF00FC01028113810115110509F4E5
:100D3000B0C0D801ED91FC910190F081E02DBE0191
:100D40006B5E7F4FC801099581111AC0F8010085BB
:100D50001185EBCFF1E0FF1609F44EC0F3E0FF126E
:100D600098C08F89882309F44AC0823089F440E80A
:100D70006DE080E191E00E948001882309F489C040
:100D80008EEF8093E80088C018161906CCF381C056
:100D9000813029F440E86BE084E091E0ECCF8330CF
:100DA00009F077C00E94FF00DC011296ED90FC90E4
:100DB00013978E010F5F1F4F6801E114F10479F062
:100DC000D701ED91FC910680F781E02DB801C701B4
:100DD0000995080F111DF701E084F184EECFD801C9
:100DE0001C92F60101900020E9F73197BF016C19C0
:100DF0007D0940E0C601BFCF62EF70E002C06EEE39
:100E000070E0FB01449150E080E80E94B501B8CF4A
:100E1000EE3F2AE0F20751F0808191818737A7E702
:100E20009A0721F09093FF0A8093FE0A87E797E7DD
:100E30009183808380916000809338019BE088E1FA
:100E40000FB6F894A895809360000FBE9093600051
:100E500097CF808191818737974709F091CFA895E7
:100E60008091600088618093600080913801809358
:100E70006000EE3FBAE0FB0739F08091FE0A9091E6
:100E8000FF0A918380837CCF1092FF0A1092FE0AA2
:100E900077CF81E28093EB006C960FB6F894DEBFBB
:100EA0000FBECDBFDF91CF91FF91EF91BF91AF9179
:100EB0009F918F917F916F915F914F913F912F9172
:100EC0001F910F91FF90EF90DF90CF900F900FBE8A
:100ED0000F901F901895789484B5826084BD84B576
:100EE000816084BD85B5826085BD85B5816085BD25
:100EF00080916E00816080936E00109281008091DD
:100F00008100826080938100809181008160809364
:100F100081008091800081608093800080919100A9
:100F20008260809391008091910081608093910014
:100F3000809190008160809390008091C1008460D6
:100F40008093C1008091C10082608093C100809134
:100F5000C10081608093C1008091C3008160809353
:100F6000C3008091C00082608093C0008091C20065
:100F700081608093C20080917A00846080937A00BF
:100F800080917A00826080937A0080917A008160FB
:100F900080937A0080917A00806880937A00109222
:100FA000520110923B0110923A018091D70081606A
:100FB0008093D70080EA8093D80089B5806189BD8D
:100FC00089B5826089BD09B400FEFDCF0E94380159
:100FD0008091D8008F7C80618093D8008091E00060
:100FE000807F8093E0008091E1008E7E8093E1001D
:100FF0008DE08093E200559A209A5D9828988FEFB3
:101000009FEF9093600180935F0103E211E050E055
:10101000E52E50E0F52EF801849190917B0083FB42
:10102000FF27F0F9CF2F20E0D22F9E0145E0220FBD
:10103000331F4A95E1F79F7D292B20937B00877012
:10104000806480937C0080917A00806480937A0031
:1010500080917A0086FDFCCF6091780080917900C4
:1010600070E0782B072E000C880B990B0E94AD09BD
:1010700021E03CE040E45AE30E94620A20E030E0D4
:1010800040E05FE30E94980820E030E048EC52E442
:101090000E94620A2AE939E949E350E40E940A09F8
:1010A0004B015C012CEE31E548EB5EE30E949808B1
:1010B0002B013C0129ED3CE049ED5CE30E94620A12
:1010C00023EC35EF48EA5EE30E9499080E945E0334
:1010D00023E73EE244EF5CE3C301B2010E94620AEF
:1010E00023EC35EF48E25EE30E9499080E945E031C
:1010F000C501B4010E945E03E114F10409F48BCF31
:101100000E94000088CFE3E5F1E01382128288EEAE
:1011100093E0A0E0B0E084839583A683B78380E169
:1011200091E0918380838FEF9FEF95878487089567
:101130005058BB27AA270E94B0080C94230A0E948B
:10114000150A38F00E941C0A20F039F49F3F19F468
:1011500026F40C94120A0EF4E095E7FB0C940C0AAA
:10116000E92F0E94340A58F3BA17620773078407FD
:10117000950720F079F4A6F50C94560A0EF4E09544
:101180000B2EBA2FA02D0B01B90190010C01CA0141
:10119000A0011124FF27591B99F0593F50F4503EEC
:1011A00068F11A16F040A22F232F342F4427585FDE
:1011B000F3CF469537952795A795F0405395C9F7F6
:1011C0007EF41F16BA0B620B730B840BBAF09150AE
:1011D000A1F0FF0FBB1F661F771F881FC2F70EC04D
:1011E000BA0F621F731F841F48F487957795679520
:1011F000B795F7959E3F08F0B0CF9395880F08F00C
:101200009927EE0F9795879508950E94E80908F4AD
:1012100081E008950E941E090C94230A0E941C0A72
:1012200058F00E94150A40F029F45F3F29F00C9411
:101230000C0A51110C94570A0C94120A0E94340A99
:1012400068F39923B1F3552391F3951B550BBB27F5
:10125000AA2762177307840738F09F5F5F4F220F3A
:10126000331F441FAA1FA9F335D00E2E3AF0E0E831
:1012700032D091505040E695001CCAF72BD0FE2F7B
:1012800029D0660F771F881FBB1F2617370748070F
:10129000AB07B0E809F0BB0B802DBF01FF279358C7
:1012A0005F4F3AF09E3F510578F00C940C0A0C9475
:1012B000570A5F3FE4F3983ED4F386957795679598
:1012C000B795F7959F5FC9F7880F911D96958795FC
:1012D00097F90895E1E0660F771F881FBB1F62171B
:1012E00073078407BA0720F0621B730B840BBA0BD9
:1012F000EE1F88F7E09508950E943C0A88F09F57FA
:1013000098F0B92F9927B751B0F0E1F0660F771F29
:10131000881F991F1AF0BA95C9F714C0B13091F01F
:101320000E94560AB1E008950C94560A672F782F50
:101330008827B85F39F0B93FCCF3869577956795E4
:10134000B395D9F73EF490958095709561957F4F50
:101350008F4F9F4F0895E89409C097FB3EF49095F6
:101360008095709561957F4F8F4F9F4F9923A9F07E
:10137000F92F96E9BB279395F6958795779567950D
:10138000B795F111F8CFFAF4BB0F11F460FF1BC051
:101390006F5F7F4F8F4F9F4F16C0882311F096E9E4
:1013A00011C0772321F09EE8872F762F05C0662392
:1013B00071F096E8862F70E060E02AF09A95660F4B
:1013C000771F881FDAF7880F9695879597F9089504
:1013D000990F0008550FAA0BE0E8FEEF1616170646
:1013E000E807F907C0F012161306E407F50798F0AE
:1013F000621B730B840B950B39F40A2661F0232BC7
:10140000242B252B21F408950A2609F4A140A69542
:101410008FEF811D811D089597F99F6780E870E027
:1014200060E008959FEF80EC089500240A9416165A
:10143000170618060906089500240A9412161306C2
:10144000140605060895092E0394000C11F4882350
:1014500052F0BB0F40F4BF2B11F460FF04C06F5F6C
:101460007F4F8F4F9F4F089557FD9058440F551F42
:1014700059F05F3F71F04795880F97FB991F61F016
:101480009F3F79F087950895121613061406551F8D
:10149000F2CF4695F1DF08C0161617061806991FF9
:1014A000F1CF86957105610508940895E894BB27EE
:1014B00066277727CB0197F908950E94E80908F479
:1014C0008FEF08950E94750A0C94230A0E94150A52
:1014D00038F00E941C0A20F0952311F00C940C0A9D
:1014E0000C94120A11240C94570A0E94340A70F3C7
:1014F000959FC1F3950F50E0551F629FF001729FB9
:10150000BB27F00DB11D639FAA27F00DB11DAA1FC7
:10151000649F6627B00DA11D661F829F2227B00D14
:10152000A11D621F739FB00DA11D621F839FA00D9F
:10153000611D221F749F3327A00D611D231F849FEF
:10154000600D211D822F762F6A2F11249F57504046
:101550009AF0F1F088234AF0EE0FFF1FBB1F661FC1
:10156000771F881F91505040A9F79E3F510580F08A
:101570000C940C0A0C94570A5F3FE4F3983ED4F3A2
:10158000869577956795B795F795E7959F5FC1F72E
:10159000FE2B880F911D9695879597F908950E94C7
:1015A000E809880B990B0895A1E21A2EAA1BBB1B10
:1015B000FD010DC0AA1FBB1FEE1FFF1FA217B3071F
:1015C000E407F50720F0A21BB30BE40BF50B661F35
:1015D000771F881F991F1A9469F7609570958095F9
:1015E00090959B01AC01BD01CF010895EE0FFF1F47
:1015F0000590F491E02D099481E090E0F8940C942A
:06160000010BF894FFCF7E
:10160600FFFFFFFF00E100000000000000000000F7
:10161600C7024502E802DD022E03EC020A0300C1FE
:1016260080810000006E616E00696E66006F7666EE
:04163600000D0A0099
:00000001FF
